{
  "contractName": "DigitalCopyright",
  "abi": [
    {
      "constant": true,
      "inputs": [],
      "name": "name",
      "outputs": [
        {
          "name": "",
          "type": "string"
        }
      ],
      "payable": false,
      "stateMutability": "view",
      "type": "function"
    },
    {
      "constant": true,
      "inputs": [],
      "name": "fees_",
      "outputs": [
        {
          "name": "retr",
          "type": "uint256"
        },
        {
          "name": "owner",
          "type": "uint256"
        }
      ],
      "payable": false,
      "stateMutability": "view",
      "type": "function"
    },
    {
      "constant": true,
      "inputs": [
        {
          "name": "",
          "type": "uint256"
        }
      ],
      "name": "nIDxDIDs_",
      "outputs": [
        {
          "name": "txid",
          "type": "string"
        },
        {
          "name": "key",
          "type": "string"
        }
      ],
      "payable": false,
      "stateMutability": "view",
      "type": "function"
    },
    {
      "constant": true,
      "inputs": [],
      "name": "symbol",
      "outputs": [
        {
          "name": "",
          "type": "string"
        }
      ],
      "payable": false,
      "stateMutability": "view",
      "type": "function"
    },
    {
      "constant": true,
      "inputs": [],
      "name": "buyCount_",
      "outputs": [
        {
          "name": "",
          "type": "uint256"
        }
      ],
      "payable": false,
      "stateMutability": "view",
      "type": "function"
    },
    {
      "inputs": [],
      "payable": false,
      "stateMutability": "nonpayable",
      "type": "constructor"
    },
    {
      "constant": false,
      "inputs": [
        {
          "name": "_rate",
          "type": "uint256"
        },
        {
          "name": "_txid",
          "type": "string"
        },
        {
          "name": "_key",
          "type": "string"
        }
      ],
      "name": "buyCopyright",
      "outputs": [],
      "payable": true,
      "stateMutability": "payable",
      "type": "function"
    },
    {
      "constant": false,
      "inputs": [],
      "name": "buyGoods",
      "outputs": [],
      "payable": false,
      "stateMutability": "nonpayable",
      "type": "function"
    }
  ],
  "bytecode": "0x608060405234801561001057600080fd5b506000808190555060408051908101604052806002815260200160088152506002600082015181600001556020820151816001015590505061105b806100576000396000f300608060405260043610610083576000357c0100000000000000000000000000000000000000000000000000000000900463ffffffff16806306fdde0314610088578063200373c9146101185780634aaf2cc01461014a57806395d89b411461025c578063b84b8b8c146102ec578063bebc9d9314610303578063d1afae5e146103af575b600080fd5b34801561009457600080fd5b5061009d6103da565b6040518080602001828103825283818151815260200191508051906020019080838360005b838110156100dd5780820151818401526020810190506100c2565b50505050905090810190601f16801561010a5780820380516001836020036101000a031916815260200191505b509250505060405180910390f35b34801561012457600080fd5b5061012d610413565b604051808381526020018281526020019250505060405180910390f35b34801561015657600080fd5b5061017560048036038101908080359060200190929190505050610425565b604051808060200180602001838103835285818151815260200191508051906020019080838360005b838110156101b957808201518184015260208101905061019e565b50505050905090810190601f1680156101e65780820380516001836020036101000a031916815260200191505b50838103825284818151815260200191508051906020019080838360005b8381101561021f578082015181840152602081019050610204565b50505050905090810190601f16801561024c5780820380516001836020036101000a031916815260200191505b5094505050505060405180910390f35b34801561026857600080fd5b50610271610579565b6040518080602001828103825283818151815260200191508051906020019080838360005b838110156102b1578082015181840152602081019050610296565b50505050905090810190601f1680156102de5780820380516001836020036101000a031916815260200191505b509250505060405180910390f35b3480156102f857600080fd5b506103016105b2565b005b6103ad60048036038101908080359060200190929190803590602001908201803590602001908080601f0160208091040260200160405190810160405280939291908181526020018383808284378201915050505050509192919290803590602001908201803590602001908080601f01602080910402602001604051908101604052809392919081815260200183838082843782019150505050505091929192905050506105bd565b005b3480156103bb57600080fd5b506103c46106df565b6040518082815260200191505060405180910390f35b6040805190810160405280601481526020017f4950204469676974616c20436f7079726967687400000000000000000000000081525081565b60028060000154908060010154905082565b6001602052806000526040600020600091509050806000018054600181600116156101000203166002900480601f0160208091040260200160405190810160405280929190818152602001828054600181600116156101000203166002900480156104d15780601f106104a6576101008083540402835291602001916104d1565b820191906000526020600020905b8154815290600101906020018083116104b457829003601f168201915b505050505090806001018054600181600116156101000203166002900480601f01602080910402602001604051908101604052809291908181526020018280546001816001161561010002031660029004801561056f5780601f106105445761010080835404028352916020019161056f565b820191906000526020600020905b81548152906001019060200180831161055257829003601f168201915b5050505050905082565b6040805190810160405280600481526020017f495044430000000000000000000000000000000000000000000000000000000081525081565b6105bb336106e5565b565b6000806000339150813b9050600081141515610641576040517f08c379a00000000000000000000000000000000000000000000000000000000081526004018080602001828103825260118152602001807f736f7272792068756d616e73206f6e6c7900000000000000000000000000000081525060200191505060405180910390fd5b7389428305344fe5de0801edf41c5632c1e0fa231c73ffffffffffffffffffffffffffffffffffffffff166108fc349081150290604051600060405180830381858888f1935050505015801561069b573d6000803e3d6000fd5b506106c26106b3606488610c0490919063ffffffff16565b34610c2e90919063ffffffff16565b92506106cd83610cd2565b6106d78585610e10565b505050505050565b60005481565b6000806000736102796465266ef3e499c24c50b3ac603a87dc1a73ffffffffffffffffffffffffffffffffffffffff166370a08231306040518263ffffffff167c0100000000000000000000000000000000000000000000000000000000028152600401808273ffffffffffffffffffffffffffffffffffffffff1673ffffffffffffffffffffffffffffffffffffffff168152602001915050602060405180830381600087803b15801561079957600080fd5b505af11580156107ad573d6000803e3d6000fd5b505050506040513d60208110156107c357600080fd5b810190808051906020019092919050505092506000831115610bfe5761080a60646107fc60026001015486610c2e90919063ffffffff16565b610c0490919063ffffffff16565b9150610837606461082960026000015486610c2e90919063ffffffff16565b610c0490919063ffffffff16565b905061085e61084f8284610e7d90919063ffffffff16565b84610f0590919063ffffffff16565b9250736102796465266ef3e499c24c50b3ac603a87dc1a73ffffffffffffffffffffffffffffffffffffffff166323b872dd307389428305344fe5de0801edf41c5632c1e0fa231c856040518463ffffffff167c0100000000000000000000000000000000000000000000000000000000028152600401808473ffffffffffffffffffffffffffffffffffffffff1673ffffffffffffffffffffffffffffffffffffffff1681526020018373ffffffffffffffffffffffffffffffffffffffff1673ffffffffffffffffffffffffffffffffffffffff1681526020018281526020019350505050602060405180830381600087803b15801561095f57600080fd5b505af1158015610973573d6000803e3d6000fd5b505050506040513d602081101561098957600080fd5b810190808051906020019092919050505050736102796465266ef3e499c24c50b3ac603a87dc1a73ffffffffffffffffffffffffffffffffffffffff166323b872dd30734a1061afb0af7d9f6c2d545ada068da68052c060866040518463ffffffff167c0100000000000000000000000000000000000000000000000000000000028152600401808473ffffffffffffffffffffffffffffffffffffffff1673ffffffffffffffffffffffffffffffffffffffff1681526020018373ffffffffffffffffffffffffffffffffffffffff1673ffffffffffffffffffffffffffffffffffffffff1681526020018281526020019350505050602060405180830381600087803b158015610a9a57600080fd5b505af1158015610aae573d6000803e3d6000fd5b505050506040513d6020811015610ac457600080fd5b810190808051906020019092919050505050736102796465266ef3e499c24c50b3ac603a87dc1a73ffffffffffffffffffffffffffffffffffffffff166323b872dd3086846040518463ffffffff167c0100000000000000000000000000000000000000000000000000000000028152600401808473ffffffffffffffffffffffffffffffffffffffff1673ffffffffffffffffffffffffffffffffffffffff1681526020018373ffffffffffffffffffffffffffffffffffffffff1673ffffffffffffffffffffffffffffffffffffffff1681526020018281526020019350505050602060405180830381600087803b158015610bc157600080fd5b505af1158015610bd5573d6000803e3d6000fd5b505050506040513d6020811015610beb57600080fd5b8101908080519060200190929190505050505b50505050565b600080600083111515610c1657600080fd5b8284811515610c2157fe5b0490508091505092915050565b600080831415610c415760009050610ccc565b8183029050818382811515610c5257fe5b04141515610cc8576040517f08c379a00000000000000000000000000000000000000000000000000000000081526004018080602001828103825260138152602001807f536166654d617468206d756c206661696c65640000000000000000000000000081525060200191505060405180910390fd5b8090505b92915050565b736102796465266ef3e499c24c50b3ac603a87dc1a73ffffffffffffffffffffffffffffffffffffffff166323b872dd7389428305344fe5de0801edf41c5632c1e0fa231c30846040518463ffffffff167c0100000000000000000000000000000000000000000000000000000000028152600401808473ffffffffffffffffffffffffffffffffffffffff1673ffffffffffffffffffffffffffffffffffffffff1681526020018373ffffffffffffffffffffffffffffffffffffffff1673ffffffffffffffffffffffffffffffffffffffff1681526020018281526020019350505050602060405180830381600087803b158015610dd157600080fd5b505af1158015610de5573d6000803e3d6000fd5b505050506040513d6020811015610dfb57600080fd5b81019080805190602001909291905050505050565b60008081548092919060010191905055508160016000805481526020019081526020016000206000019080519060200190610e4c929190610f8a565b508060016000805481526020019081526020016000206001019080519060200190610e78929190610f8a565b505050565b60008183019050828110151515610efc576040517f08c379a00000000000000000000000000000000000000000000000000000000081526004018080602001828103825260138152602001807f536166654d61746820616464206661696c65640000000000000000000000000081525060200191505060405180910390fd5b80905092915050565b6000828211151515610f7f576040517f08c379a00000000000000000000000000000000000000000000000000000000081526004018080602001828103825260138152602001807f536166654d61746820737562206661696c65640000000000000000000000000081525060200191505060405180910390fd5b818303905092915050565b828054600181600116156101000203166002900490600052602060002090601f016020900481019282601f10610fcb57805160ff1916838001178555610ff9565b82800160010185558215610ff9579182015b82811115610ff8578251825591602001919060010190610fdd565b5b509050611006919061100a565b5090565b61102c91905b80821115611028576000816000905550600101611010565b5090565b905600a165627a7a7230582052328fbebfbd8a54df74c036bffbad25ee5305e784a16e1d15e9346294743fc90029",
  "source": "pragma solidity ^0.4.24;\n\n/**\n * @title IP digital copyright.\n */\n//==============================================================================\n//     _    _  _ _|_ _  .\n//    (/_\\/(/_| | | _\\  .\n//==============================================================================\ncontract DigitalCopyright {\n    using SafeMath for *;\n    // fill out your address\n    address constant private IpOwner = 0x89428305344Fe5De0801EDF41C5632C1e0FA231C;\n    address constant private IpBuyer = 0x4A1061Afb0aF7d9f6c2D545Ada068dA68052c060;\n    ERC20Interface constant private IERC20 = ERC20Interface(0x6102796465266ef3E499c24c50b3Ac603a87dc1A);\n//==============================================================================\n//     _ _  _  |`. _     _ _ |_ | _  _  .\n//    (_(_)| |~|~|(_||_|| (_||_)|(/__\\  .  (default settings)\n//=================_|===========================================================\n    string constant public name = \"IP Digital Copyright\";\n    string constant public symbol = \"IPDC\";\n//==============================================================================\n//     _| _ _|_ _    _ _ _|_    _   .\n//    (_|(_| | (_|  _\\(/_ | |_||_)  .  (data used to store info that changes)\n//=============================|================================================\n    uint256 public buyCount_;\n//****************\n// LICENSE DATA \n//****************\n    mapping (uint256 => Elastos.DIDs) public nIDxDIDs_; // (number => DID) returns did by buying index\n//****************\n// FEE DATA \n//****************\n    IPDCdatasets.distributeFee public fees_; // define each stakeholder's fee;\n//==============================================================================\n//     _ _  _  __|_ _    __|_ _  _  .\n//    (_(_)| |_\\ | | |_|(_ | (_)|   .  (initial data setup upon contract deploy)\n//==============================================================================\n    constructor ()\n        public\n    {\n        buyCount_ = 0;\n        fees_ = IPDCdatasets.distributeFee(2, 8); // 90% to IP copyright buyer, 2% return to user, 8% give to IP owner\n    }\n//==============================================================================\n//     _ _  _  _|. |`. _  _ _  .\n//    | | |(_)(_||~|~|(/_| _\\  .  (these are safety checks)\n//==============================================================================\n    /**\n     * @dev prevents contracts from interacting with fomo3dx \n     */\n    modifier isHuman() {\n        address _addr = msg.sender;\n        uint256 _codeLength;\n        \n        assembly {_codeLength := extcodesize(_addr)}\n        require(_codeLength == 0, \"sorry humans only\");\n        _;\n    }\n//==============================================================================\n//     _    |_ |. _   |`    _  __|_. _  _  _  .\n//    |_)|_||_)||(_  ~|~|_|| |(_ | |(_)| |_\\  .  (use these to interact with contract)\n//====|=========================================================================\n     /**\n     * @dev buy copyright with paramaters\n     */\n    function buyCopyright\n        (\n        uint256 _rate,\n        string _txid,\n        string _key\n        )\n        public\n        payable\n        isHuman()\n    {\n        IpOwner.transfer(msg.value);\n        uint256 _assets = (msg.value).mul(_rate.div(100));\n        mortgage(_assets);\n        updateDID(_txid, _key);\n    }\n\n    /**\n     * @dev mortgage token amount to contract\n     */\n    function mortgage (uint256 _assets)\n        private\n    {\n        IERC20.transferFrom(IpOwner, address(this), _assets);\n    }\n\n    /**\n     * @dev update address and key to search DID\n     */\n    function updateDID (string _txid, string _key)\n        private\n    {\n        buyCount_++;\n        nIDxDIDs_[buyCount_].txid = _txid;\n        nIDxDIDs_[buyCount_].key = _key;\n    }\n\n    /**\n     * @dev customer buy goods and distribute\n     */\n    function buyGoods ()\n        public\n    {\n        distribute(msg.sender);\n    }\n\n    /**\n     * @dev distribute token amount to each stakeholder\n     */\n    function distribute (address _user)\n        private\n    {\n        uint256 _balance = IERC20.balanceOf(address(this));\n        if (_balance > 0)\n        {\n            uint256 _ownValue = (_balance.mul(fees_.owner)).div(100);\n            uint256 _retrValue = (_balance.mul(fees_.retr)).div(100);\n            _balance = _balance.sub(_ownValue.add(_retrValue));\n            // distribute to each stakeholder\n            IERC20.transferFrom(address(this), IpOwner, _ownValue);\n            IERC20.transferFrom(address(this), IpBuyer, _balance);\n            IERC20.transferFrom(address(this), _user, _retrValue);\n        }\n    }\n}\n\n//==============================================================================\n//  . _ _|_ _  _ |` _  _ _  _  .\n//  || | | (/_| ~|~(_|(_(/__\\  .\n//==============================================================================\n/**\n * @title ERC20 interface\n * @dev see https://github.com/ethereum/EIPs/issues/20\n */\ninterface ERC20Interface {\n  function totalSupply() external view returns (uint256);\n\n  function balanceOf(address who) external view returns (uint256);\n\n  function allowance(address owner, address spender)\n    external view returns (uint256);\n\n  function transfer(address to, uint256 value) external returns (bool);\n\n  function approve(address spender, uint256 value)\n    external returns (bool);\n\n  function transferFrom(address from, address to, uint256 value)\n    external returns (bool);\n\n  event Transfer(\n    address indexed from,\n    address indexed to,\n    uint256 value\n  );\n\n  event Approval(\n    address indexed owner,\n    address indexed spender,\n    uint256 value\n  );\n}\n\n//==============================================================================\n//   __|_ _    __|_ _  .\n//  _\\ | | |_|(_ | _\\  .\n//==============================================================================\n/**\n * @dev the implementation of elastos DID searching\n */\nlibrary Elastos {\n    struct DIDs {\n        string txid;\n        string key;\n    }\n}\n\n/**\n * @dev datasets of IP digital right\n */\nlibrary IPDCdatasets {\n    struct distributeFee {\n        uint256 retr; // distribute 2% fee to buyer  \n        uint256 owner; // distribute 8% fee to ip right owner\n    }\n}\n\n/**\n * @title SafeMath\n * @dev Math operations with safety checks that throw on error\n * change notes:  original SafeMath library from OpenZeppelin modified by Inventor\n * - added sqrt\n * - added sq\n * - added pwr \n * - changed asserts to requires with error log outputs\n */\nlibrary SafeMath {\n    \n    /**\n    * @dev Multiplies two numbers, throws on overflow.\n    */\n    function mul(uint256 a, uint256 b) \n        internal \n        pure \n        returns (uint256 c) \n    {\n        if (a == 0) {\n            return 0;\n        }\n        c = a * b;\n        require(c / a == b, \"SafeMath mul failed\");\n        return c;\n    }\n\n    /**\n    * @dev Integer division of two numbers, truncating the quotient.\n    */\n    function div(uint256 a, uint256 b) internal pure returns (uint256) {\n        require(b > 0); // Solidity only automatically asserts when dividing by 0\n        uint256 c = a / b;\n        // assert(a == b * c + a % b); // There is no case in which this doesn't hold\n        return c;\n    }\n    \n    /**\n    * @dev Subtracts two numbers, throws on overflow (i.e. if subtrahend is greater than minuend).\n    */\n    function sub(uint256 a, uint256 b)\n        internal\n        pure\n        returns (uint256) \n    {\n        require(b <= a, \"SafeMath sub failed\");\n        return a - b;\n    }\n\n    /**\n    * @dev Adds two numbers, throws on overflow.\n    */\n    function add(uint256 a, uint256 b)\n        internal\n        pure\n        returns (uint256 c) \n    {\n        c = a + b;\n        require(c >= a, \"SafeMath add failed\");\n        return c;\n    }\n    \n    /**\n     * @dev gives square root of given x.\n     */\n    function sqrt(uint256 x)\n        internal\n        pure\n        returns (uint256 y) \n    {\n        uint256 z = ((add(x,1)) / 2);\n        y = x;\n        while (z < y) \n        {\n            y = z;\n            z = ((add((x / z),z)) / 2);\n        }\n    }\n    \n    /**\n     * @dev gives square. multiplies x by x\n     */\n    function sq(uint256 x)\n        internal\n        pure\n        returns (uint256)\n    {\n        return (mul(x,x));\n    }\n    \n    /**\n     * @dev x to the power of y \n     */\n    function pwr(uint256 x, uint256 y)\n        internal \n        pure \n        returns (uint256)\n    {\n        if (x==0)\n            return (0);\n        else if (y==0)\n            return (1);\n        else \n        {\n            uint256 z = x;\n            for (uint256 i=1; i < y; i++)\n                z = mul(z,x);\n            return (z);\n        }\n    }\n\n    /**\n    * @dev Divides two numbers and returns the remainder (unsigned integer modulo),\n    * reverts when dividing by zero.\n    */\n    function mod(uint256 a, uint256 b) internal pure returns (uint256) {\n        require(b != 0);\n        return a % b;\n    }\n}",
  "sourcePath": "/Users/5swind/Downloads/DoraHacks-GHS-2018/truffle/contracts/DigitalCopyright.sol",
  "compiler": {
    "name": "solc",
    "version": "0.4.24+commit.e67f0147.Emscripten.clang"
  },
  "schemaVersion": "2.0.1",
  "updatedAt": "2018-11-10T14:33:56.743Z"
}